{
  "contractName": "Roles",
  "abi": [
    {
      "constant": false,
      "inputs": [
        {
          "name": "role",
          "type": "Roles.Role storage"
        },
        {
          "name": "account",
          "type": "address"
        }
      ],
      "name": "add",
      "outputs": [],
      "payable": false,
      "stateMutability": "nonpayable",
      "type": "function"
    },
    {
      "constant": false,
      "inputs": [
        {
          "name": "role",
          "type": "Roles.Role storage"
        },
        {
          "name": "account",
          "type": "address"
        }
      ],
      "name": "remove",
      "outputs": [],
      "payable": false,
      "stateMutability": "nonpayable",
      "type": "function"
    },
    {
      "constant": false,
      "inputs": [
        {
          "name": "role",
          "type": "Roles.Role storage"
        },
        {
          "name": "account",
          "type": "address"
        }
      ],
      "name": "has",
      "outputs": [
        {
          "name": "",
          "type": "bool"
        }
      ],
      "payable": false,
      "stateMutability": "nonpayable",
      "type": "function"
    }
  ],
  "bytecode": "0x610391610030600b82828239805160001a6073146000811461002057610022565bfe5b5030600052607381538281f300730000000000000000000000000000000000000000301460806040526004361061006e576000357c0100000000000000000000000000000000000000000000000000000000900463ffffffff1680631ead94261461007357806331f7857c146100c0578063df7e5f761461010d575b600080fd5b81801561007f57600080fd5b506100be60048036038101908080359060200190929190803573ffffffffffffffffffffffffffffffffffffffff169060200190929190505050610172565b005b8180156100cc57600080fd5b5061010b60048036038101908080359060200190929190803573ffffffffffffffffffffffffffffffffffffffff169060200190929190505050610222565b005b81801561011957600080fd5b5061015860048036038101908080359060200190929190803573ffffffffffffffffffffffffffffffffffffffff1690602001909291905050506102d1565b604051808215151515815260200191505060405180910390f35b600073ffffffffffffffffffffffffffffffffffffffff168173ffffffffffffffffffffffffffffffffffffffff16141515156101ae57600080fd5b6101b882826102d1565b1515156101c457600080fd5b60018260000160008373ffffffffffffffffffffffffffffffffffffffff1673ffffffffffffffffffffffffffffffffffffffff16815260200190815260200160002060006101000a81548160ff0219169083151502179055505050565b600073ffffffffffffffffffffffffffffffffffffffff168173ffffffffffffffffffffffffffffffffffffffff161415151561025e57600080fd5b61026882826102d1565b151561027357600080fd5b60008260000160008373ffffffffffffffffffffffffffffffffffffffff1673ffffffffffffffffffffffffffffffffffffffff16815260200190815260200160002060006101000a81548160ff0219169083151502179055505050565b60008073ffffffffffffffffffffffffffffffffffffffff168273ffffffffffffffffffffffffffffffffffffffff161415151561030e57600080fd5b8260000160008373ffffffffffffffffffffffffffffffffffffffff1673ffffffffffffffffffffffffffffffffffffffff16815260200190815260200160002060009054906101000a900460ff169050929150505600a165627a7a723058206848d6d845930d0c0c561793475fe30bcb410e992ed1fcfad7bcec88f086c3390029",
  "source": "pragma solidity >=0.4.25;\r\n\r\n/**\r\n * @title Roles\r\n * @dev Library for managing addresses assigned to a Role.\r\n */\r\n \r\nlibrary Roles {\r\n    struct Role {\r\n        mapping (address => bool) bearer;\r\n    }\r\n\r\n    /**\r\n     * @dev give an account access to this role\r\n     */\r\n    function add(Role storage role, address account) public {\r\n        require(account != address(0));\r\n        require(!has(role, account));\r\n\r\n        role.bearer[account] = true;\r\n    }\r\n\r\n    /**\r\n     * @dev remove an account's access to this role\r\n     */\r\n    function remove(Role storage role, address account) public {\r\n        require(account != address(0));\r\n        require(has(role, account));\r\n\r\n        role.bearer[account] = false;\r\n    }\r\n\r\n    /**\r\n     * @dev check if an account has this role\r\n     * @return bool\r\n     */\r\n    function has(Role storage role, address account) public returns (bool) {\r\n        require(account != address(0));\r\n        return role.bearer[account];\r\n    }\r\n}",
  "sourcePath": "C:\\Users\\lobes\\.vscode\\icobis\\initialcoinoffering\\contracts\\Roles.sol",
  "compiler": {
    "name": "solc",
    "version": "0.4.25+commit.59dbf8f1.Emscripten.clang"
  },
  "schemaVersion": "2.0.2",
  "updatedAt": "2019-03-14T23:08:05.186Z"
}