{
  "contractName": "WhitelistedRole",
  "abi": [
    {
      "constant": false,
      "inputs": [],
      "name": "renounceWhitelistAdmin",
      "outputs": [],
      "payable": false,
      "stateMutability": "nonpayable",
      "type": "function"
    },
    {
      "constant": false,
      "inputs": [
        {
          "name": "account",
          "type": "address"
        }
      ],
      "name": "addWhitelistAdmin",
      "outputs": [],
      "payable": false,
      "stateMutability": "nonpayable",
      "type": "function"
    },
    {
      "constant": false,
      "inputs": [
        {
          "name": "account",
          "type": "address"
        }
      ],
      "name": "isWhitelistAdmin",
      "outputs": [
        {
          "name": "",
          "type": "bool"
        }
      ],
      "payable": false,
      "stateMutability": "nonpayable",
      "type": "function"
    },
    {
      "anonymous": false,
      "inputs": [
        {
          "indexed": true,
          "name": "account",
          "type": "address"
        }
      ],
      "name": "WhitelistedAdded",
      "type": "event"
    },
    {
      "anonymous": false,
      "inputs": [
        {
          "indexed": true,
          "name": "account",
          "type": "address"
        }
      ],
      "name": "WhitelistedRemoved",
      "type": "event"
    },
    {
      "anonymous": false,
      "inputs": [
        {
          "indexed": true,
          "name": "account",
          "type": "address"
        }
      ],
      "name": "WhitelistAdminAdded",
      "type": "event"
    },
    {
      "anonymous": false,
      "inputs": [
        {
          "indexed": true,
          "name": "account",
          "type": "address"
        }
      ],
      "name": "WhitelistAdminRemoved",
      "type": "event"
    },
    {
      "constant": false,
      "inputs": [
        {
          "name": "account",
          "type": "address"
        }
      ],
      "name": "isWhitelisted",
      "outputs": [
        {
          "name": "",
          "type": "bool"
        }
      ],
      "payable": false,
      "stateMutability": "nonpayable",
      "type": "function"
    },
    {
      "constant": false,
      "inputs": [
        {
          "name": "account",
          "type": "address"
        }
      ],
      "name": "addWhitelisted",
      "outputs": [],
      "payable": false,
      "stateMutability": "nonpayable",
      "type": "function"
    },
    {
      "constant": false,
      "inputs": [
        {
          "name": "account",
          "type": "address"
        }
      ],
      "name": "removeWhitelisted",
      "outputs": [],
      "payable": false,
      "stateMutability": "nonpayable",
      "type": "function"
    },
    {
      "constant": false,
      "inputs": [],
      "name": "renounceWhitelisted",
      "outputs": [],
      "payable": false,
      "stateMutability": "nonpayable",
      "type": "function"
    }
  ],
  "bytecode": "0x608060405261001c33610021640100000000026401000000009004565b610121565b600073__Roles_________________________________631ead94269091836040518363ffffffff167c0100000000000000000000000000000000000000000000000000000000028152600401808381526020018273ffffffffffffffffffffffffffffffffffffffff1673ffffffffffffffffffffffffffffffffffffffff1681526020019250505060006040518083038186803b1580156100c357600080fd5b505af41580156100d7573d6000803e3d6000fd5b505050508073ffffffffffffffffffffffffffffffffffffffff167f22380c05984257a1cb900161c713dd71d39e74820f1aea43bd3f1bdd2096129960405160405180910390a250565b6108a2806101306000396000f300608060405260043610610083576000357c0100000000000000000000000000000000000000000000000000000000900463ffffffff16806310154bad14610088578063291d9549146100cb5780633af32abf1461010e5780634c5a628c146101695780637362d9c814610180578063bb5f747b146101c3578063d6cd94731461021e575b600080fd5b34801561009457600080fd5b506100c9600480360381019080803573ffffffffffffffffffffffffffffffffffffffff169060200190929190505050610235565b005b3480156100d757600080fd5b5061010c600480360381019080803573ffffffffffffffffffffffffffffffffffffffff169060200190929190505050610255565b005b34801561011a57600080fd5b5061014f600480360381019080803573ffffffffffffffffffffffffffffffffffffffff169060200190929190505050610275565b604051808215151515815260200191505060405180910390f35b34801561017557600080fd5b5061017e61035b565b005b34801561018c57600080fd5b506101c1600480360381019080803573ffffffffffffffffffffffffffffffffffffffff169060200190929190505050610366565b005b3480156101cf57600080fd5b50610204600480360381019080803573ffffffffffffffffffffffffffffffffffffffff169060200190929190505050610386565b604051808215151515815260200191505060405180910390f35b34801561022a57600080fd5b5061023361046b565b005b61023e33610386565b151561024957600080fd5b61025281610476565b50565b61025e33610386565b151561026957600080fd5b61027281610576565b50565b6000600173__Roles_________________________________63df7e5f769091846040518363ffffffff167c0100000000000000000000000000000000000000000000000000000000028152600401808381526020018273ffffffffffffffffffffffffffffffffffffffff1673ffffffffffffffffffffffffffffffffffffffff1681526020019250505060206040518083038186803b15801561031957600080fd5b505af415801561032d573d6000803e3d6000fd5b505050506040513d602081101561034357600080fd5b81019080805190602001909291905050509050919050565b61036433610676565b565b61036f33610386565b151561037a57600080fd5b61038381610776565b50565b60008073__Roles_________________________________63df7e5f769091846040518363ffffffff167c0100000000000000000000000000000000000000000000000000000000028152600401808381526020018273ffffffffffffffffffffffffffffffffffffffff1673ffffffffffffffffffffffffffffffffffffffff1681526020019250505060206040518083038186803b15801561042957600080fd5b505af415801561043d573d6000803e3d6000fd5b505050506040513d602081101561045357600080fd5b81019080805190602001909291905050509050919050565b61047433610576565b565b600173__Roles_________________________________631ead94269091836040518363ffffffff167c0100000000000000000000000000000000000000000000000000000000028152600401808381526020018273ffffffffffffffffffffffffffffffffffffffff1673ffffffffffffffffffffffffffffffffffffffff1681526020019250505060006040518083038186803b15801561051857600080fd5b505af415801561052c573d6000803e3d6000fd5b505050508073ffffffffffffffffffffffffffffffffffffffff167fee1504a83b6d4a361f4c1dc78ab59bfa30d6a3b6612c403e86bb01ef2984295f60405160405180910390a250565b600173__Roles_________________________________6331f7857c9091836040518363ffffffff167c0100000000000000000000000000000000000000000000000000000000028152600401808381526020018273ffffffffffffffffffffffffffffffffffffffff1673ffffffffffffffffffffffffffffffffffffffff1681526020019250505060006040518083038186803b15801561061857600080fd5b505af415801561062c573d6000803e3d6000fd5b505050508073ffffffffffffffffffffffffffffffffffffffff167f270d9b30cf5b0793bbfd54c9d5b94aeb49462b8148399000265144a8722da6b660405160405180910390a250565b600073__Roles_________________________________6331f7857c9091836040518363ffffffff167c0100000000000000000000000000000000000000000000000000000000028152600401808381526020018273ffffffffffffffffffffffffffffffffffffffff1673ffffffffffffffffffffffffffffffffffffffff1681526020019250505060006040518083038186803b15801561071857600080fd5b505af415801561072c573d6000803e3d6000fd5b505050508073ffffffffffffffffffffffffffffffffffffffff167f0a8eb35e5ca14b3d6f28e4abf2f128dbab231a58b56e89beb5d636115001e16560405160405180910390a250565b600073__Roles_________________________________631ead94269091836040518363ffffffff167c0100000000000000000000000000000000000000000000000000000000028152600401808381526020018273ffffffffffffffffffffffffffffffffffffffff1673ffffffffffffffffffffffffffffffffffffffff1681526020019250505060006040518083038186803b15801561081857600080fd5b505af415801561082c573d6000803e3d6000fd5b505050508073ffffffffffffffffffffffffffffffffffffffff167f22380c05984257a1cb900161c713dd71d39e74820f1aea43bd3f1bdd2096129960405160405180910390a2505600a165627a7a72305820a5d1208ecca9666933646a88146dc4cb8de0fe553be783c2ff8009162c701d890029",
  "deployedBytecode": "0x608060405260043610610083576000357c0100000000000000000000000000000000000000000000000000000000900463ffffffff16806310154bad14610088578063291d9549146100cb5780633af32abf1461010e5780634c5a628c146101695780637362d9c814610180578063bb5f747b146101c3578063d6cd94731461021e575b600080fd5b34801561009457600080fd5b506100c9600480360381019080803573ffffffffffffffffffffffffffffffffffffffff169060200190929190505050610235565b005b3480156100d757600080fd5b5061010c600480360381019080803573ffffffffffffffffffffffffffffffffffffffff169060200190929190505050610255565b005b34801561011a57600080fd5b5061014f600480360381019080803573ffffffffffffffffffffffffffffffffffffffff169060200190929190505050610275565b604051808215151515815260200191505060405180910390f35b34801561017557600080fd5b5061017e61035b565b005b34801561018c57600080fd5b506101c1600480360381019080803573ffffffffffffffffffffffffffffffffffffffff169060200190929190505050610366565b005b3480156101cf57600080fd5b50610204600480360381019080803573ffffffffffffffffffffffffffffffffffffffff169060200190929190505050610386565b604051808215151515815260200191505060405180910390f35b34801561022a57600080fd5b5061023361046b565b005b61023e33610386565b151561024957600080fd5b61025281610476565b50565b61025e33610386565b151561026957600080fd5b61027281610576565b50565b6000600173__Roles_________________________________63df7e5f769091846040518363ffffffff167c0100000000000000000000000000000000000000000000000000000000028152600401808381526020018273ffffffffffffffffffffffffffffffffffffffff1673ffffffffffffffffffffffffffffffffffffffff1681526020019250505060206040518083038186803b15801561031957600080fd5b505af415801561032d573d6000803e3d6000fd5b505050506040513d602081101561034357600080fd5b81019080805190602001909291905050509050919050565b61036433610676565b565b61036f33610386565b151561037a57600080fd5b61038381610776565b50565b60008073__Roles_________________________________63df7e5f769091846040518363ffffffff167c0100000000000000000000000000000000000000000000000000000000028152600401808381526020018273ffffffffffffffffffffffffffffffffffffffff1673ffffffffffffffffffffffffffffffffffffffff1681526020019250505060206040518083038186803b15801561042957600080fd5b505af415801561043d573d6000803e3d6000fd5b505050506040513d602081101561045357600080fd5b81019080805190602001909291905050509050919050565b61047433610576565b565b600173__Roles_________________________________631ead94269091836040518363ffffffff167c0100000000000000000000000000000000000000000000000000000000028152600401808381526020018273ffffffffffffffffffffffffffffffffffffffff1673ffffffffffffffffffffffffffffffffffffffff1681526020019250505060006040518083038186803b15801561051857600080fd5b505af415801561052c573d6000803e3d6000fd5b505050508073ffffffffffffffffffffffffffffffffffffffff167fee1504a83b6d4a361f4c1dc78ab59bfa30d6a3b6612c403e86bb01ef2984295f60405160405180910390a250565b600173__Roles_________________________________6331f7857c9091836040518363ffffffff167c0100000000000000000000000000000000000000000000000000000000028152600401808381526020018273ffffffffffffffffffffffffffffffffffffffff1673ffffffffffffffffffffffffffffffffffffffff1681526020019250505060006040518083038186803b15801561061857600080fd5b505af415801561062c573d6000803e3d6000fd5b505050508073ffffffffffffffffffffffffffffffffffffffff167f270d9b30cf5b0793bbfd54c9d5b94aeb49462b8148399000265144a8722da6b660405160405180910390a250565b600073__Roles_________________________________6331f7857c9091836040518363ffffffff167c0100000000000000000000000000000000000000000000000000000000028152600401808381526020018273ffffffffffffffffffffffffffffffffffffffff1673ffffffffffffffffffffffffffffffffffffffff1681526020019250505060006040518083038186803b15801561071857600080fd5b505af415801561072c573d6000803e3d6000fd5b505050508073ffffffffffffffffffffffffffffffffffffffff167f0a8eb35e5ca14b3d6f28e4abf2f128dbab231a58b56e89beb5d636115001e16560405160405180910390a250565b600073__Roles_________________________________631ead94269091836040518363ffffffff167c0100000000000000000000000000000000000000000000000000000000028152600401808381526020018273ffffffffffffffffffffffffffffffffffffffff1673ffffffffffffffffffffffffffffffffffffffff1681526020019250505060006040518083038186803b15801561081857600080fd5b505af415801561082c573d6000803e3d6000fd5b505050508073ffffffffffffffffffffffffffffffffffffffff167f22380c05984257a1cb900161c713dd71d39e74820f1aea43bd3f1bdd2096129960405160405180910390a2505600a165627a7a72305820a5d1208ecca9666933646a88146dc4cb8de0fe553be783c2ff8009162c701d890029",
  "source": "pragma solidity >=0.4.25;\r\nimport \"./Roles.sol\";\r\nimport \"./WhitelistAdminRole.sol\";\r\n\r\n/**\r\n * @title WhitelistedRole\r\n * @dev Whitelisted accounts have been approved by a WhitelistAdmin to perform certain actions (e.g. participate in a\r\n * crowdsale). This role is special in that the only accounts that can add it are WhitelistAdmins (who can also remove\r\n * it), and not Whitelisteds themselves.\r\n */\r\ncontract WhitelistedRole is WhitelistAdminRole {\r\n    \r\n    event WhitelistedAdded(address indexed account);\r\n    event WhitelistedRemoved(address indexed account);\r\n\r\n    Roles.Role private _whitelisteds;\r\n    \r\n\r\n    modifier onlyWhitelisted() {\r\n        require(isWhitelisted(msg.sender));\r\n        _;\r\n    }\r\n\r\n    function isWhitelisted(address account) public returns (bool) {\r\n        return _whitelisteds.has(account);\r\n    }\r\n\r\n    function addWhitelisted(address account) public onlyWhitelistAdmin {\r\n        _addWhitelisted(account);\r\n    }\r\n\r\n    function removeWhitelisted(address account) public onlyWhitelistAdmin {\r\n        _removeWhitelisted(account);\r\n    }\r\n\r\n    function renounceWhitelisted() public {\r\n        _removeWhitelisted(msg.sender);\r\n    }\r\n\r\n    function _addWhitelisted(address account) internal {\r\n        _whitelisteds.add(account);\r\n        emit WhitelistedAdded(account);\r\n    }\r\n\r\n    function _removeWhitelisted(address account) internal {\r\n        _whitelisteds.remove(account);\r\n        emit WhitelistedRemoved(account);\r\n    }\r\n}",
  "sourcePath": "C:\\Users\\lobes\\.vscode\\icobis\\initialcoinoffering\\contracts\\WhitelistedRole.sol",
  "compiler": {
    "name": "solc",
    "version": "0.4.25+commit.59dbf8f1.Emscripten.clang"
  },
  "schemaVersion": "2.0.2",
  "updatedAt": "2019-03-14T23:08:05.184Z"
}